{
  "address": "0xef7d9a669CdA2E4e48d46F26F532FCc15cAb7f9c",
  "abi": [
    {
      "inputs": [
        {
          "internalType": "address",
          "name": "_turing",
          "type": "address"
        },
        {
          "internalType": "string",
          "name": "_api",
          "type": "string"
        }
      ],
      "stateMutability": "nonpayable",
      "type": "constructor"
    },
    {
      "anonymous": false,
      "inputs": [
        {
          "indexed": true,
          "internalType": "address",
          "name": "owner",
          "type": "address"
        },
        {
          "indexed": true,
          "internalType": "address",
          "name": "spender",
          "type": "address"
        },
        {
          "indexed": true,
          "internalType": "uint256",
          "name": "id",
          "type": "uint256"
        }
      ],
      "name": "Approval",
      "type": "event"
    },
    {
      "anonymous": false,
      "inputs": [
        {
          "indexed": true,
          "internalType": "address",
          "name": "owner",
          "type": "address"
        },
        {
          "indexed": true,
          "internalType": "address",
          "name": "operator",
          "type": "address"
        },
        {
          "indexed": false,
          "internalType": "bool",
          "name": "approved",
          "type": "bool"
        }
      ],
      "name": "ApprovalForAll",
      "type": "event"
    },
    {
      "anonymous": false,
      "inputs": [
        {
          "indexed": true,
          "internalType": "uint256",
          "name": "attacker",
          "type": "uint256"
        },
        {
          "indexed": true,
          "internalType": "uint256",
          "name": "target",
          "type": "uint256"
        }
      ],
      "name": "Attack",
      "type": "event"
    },
    {
      "anonymous": false,
      "inputs": [
        {
          "indexed": true,
          "internalType": "uint256",
          "name": "tokenId",
          "type": "uint256"
        }
      ],
      "name": "Dead",
      "type": "event"
    },
    {
      "anonymous": false,
      "inputs": [
        {
          "indexed": true,
          "internalType": "address",
          "name": "owner",
          "type": "address"
        },
        {
          "indexed": false,
          "internalType": "uint256",
          "name": "tokenId",
          "type": "uint256"
        }
      ],
      "name": "NewEntity",
      "type": "event"
    },
    {
      "anonymous": false,
      "inputs": [
        {
          "indexed": true,
          "internalType": "address",
          "name": "from",
          "type": "address"
        },
        {
          "indexed": true,
          "internalType": "address",
          "name": "to",
          "type": "address"
        },
        {
          "indexed": true,
          "internalType": "uint256",
          "name": "id",
          "type": "uint256"
        }
      ],
      "name": "Transfer",
      "type": "event"
    },
    {
      "inputs": [],
      "name": "api",
      "outputs": [
        {
          "internalType": "string",
          "name": "",
          "type": "string"
        }
      ],
      "stateMutability": "view",
      "type": "function"
    },
    {
      "inputs": [
        {
          "internalType": "address",
          "name": "spender",
          "type": "address"
        },
        {
          "internalType": "uint256",
          "name": "id",
          "type": "uint256"
        }
      ],
      "name": "approve",
      "outputs": [],
      "stateMutability": "nonpayable",
      "type": "function"
    },
    {
      "inputs": [
        {
          "internalType": "uint256",
          "name": "_attacker",
          "type": "uint256"
        },
        {
          "internalType": "uint256",
          "name": "_target",
          "type": "uint256"
        }
      ],
      "name": "attack",
      "outputs": [],
      "stateMutability": "nonpayable",
      "type": "function"
    },
    {
      "inputs": [
        {
          "internalType": "address",
          "name": "",
          "type": "address"
        }
      ],
      "name": "balanceOf",
      "outputs": [
        {
          "internalType": "uint256",
          "name": "",
          "type": "uint256"
        }
      ],
      "stateMutability": "view",
      "type": "function"
    },
    {
      "inputs": [
        {
          "internalType": "uint256",
          "name": "",
          "type": "uint256"
        }
      ],
      "name": "getApproved",
      "outputs": [
        {
          "internalType": "address",
          "name": "",
          "type": "address"
        }
      ],
      "stateMutability": "view",
      "type": "function"
    },
    {
      "inputs": [
        {
          "internalType": "uint256",
          "name": "",
          "type": "uint256"
        }
      ],
      "name": "health",
      "outputs": [
        {
          "internalType": "uint256",
          "name": "",
          "type": "uint256"
        }
      ],
      "stateMutability": "view",
      "type": "function"
    },
    {
      "inputs": [
        {
          "internalType": "address",
          "name": "",
          "type": "address"
        },
        {
          "internalType": "address",
          "name": "",
          "type": "address"
        }
      ],
      "name": "isApprovedForAll",
      "outputs": [
        {
          "internalType": "bool",
          "name": "",
          "type": "bool"
        }
      ],
      "stateMutability": "view",
      "type": "function"
    },
    {
      "inputs": [],
      "name": "mint",
      "outputs": [
        {
          "internalType": "uint256",
          "name": "",
          "type": "uint256"
        }
      ],
      "stateMutability": "nonpayable",
      "type": "function"
    },
    {
      "inputs": [],
      "name": "name",
      "outputs": [
        {
          "internalType": "string",
          "name": "",
          "type": "string"
        }
      ],
      "stateMutability": "view",
      "type": "function"
    },
    {
      "inputs": [
        {
          "internalType": "uint256",
          "name": "",
          "type": "uint256"
        }
      ],
      "name": "ownerOf",
      "outputs": [
        {
          "internalType": "address",
          "name": "",
          "type": "address"
        }
      ],
      "stateMutability": "view",
      "type": "function"
    },
    {
      "inputs": [
        {
          "internalType": "address",
          "name": "from",
          "type": "address"
        },
        {
          "internalType": "address",
          "name": "to",
          "type": "address"
        },
        {
          "internalType": "uint256",
          "name": "id",
          "type": "uint256"
        }
      ],
      "name": "safeTransferFrom",
      "outputs": [],
      "stateMutability": "nonpayable",
      "type": "function"
    },
    {
      "inputs": [
        {
          "internalType": "address",
          "name": "from",
          "type": "address"
        },
        {
          "internalType": "address",
          "name": "to",
          "type": "address"
        },
        {
          "internalType": "uint256",
          "name": "id",
          "type": "uint256"
        },
        {
          "internalType": "bytes",
          "name": "data",
          "type": "bytes"
        }
      ],
      "name": "safeTransferFrom",
      "outputs": [],
      "stateMutability": "nonpayable",
      "type": "function"
    },
    {
      "inputs": [
        {
          "internalType": "address",
          "name": "operator",
          "type": "address"
        },
        {
          "internalType": "bool",
          "name": "approved",
          "type": "bool"
        }
      ],
      "name": "setApprovalForAll",
      "outputs": [],
      "stateMutability": "nonpayable",
      "type": "function"
    },
    {
      "inputs": [
        {
          "internalType": "bytes4",
          "name": "interfaceId",
          "type": "bytes4"
        }
      ],
      "name": "supportsInterface",
      "outputs": [
        {
          "internalType": "bool",
          "name": "",
          "type": "bool"
        }
      ],
      "stateMutability": "pure",
      "type": "function"
    },
    {
      "inputs": [],
      "name": "symbol",
      "outputs": [
        {
          "internalType": "string",
          "name": "",
          "type": "string"
        }
      ],
      "stateMutability": "view",
      "type": "function"
    },
    {
      "inputs": [],
      "name": "tokenId",
      "outputs": [
        {
          "internalType": "uint256",
          "name": "",
          "type": "uint256"
        }
      ],
      "stateMutability": "view",
      "type": "function"
    },
    {
      "inputs": [
        {
          "internalType": "uint256",
          "name": "_tokenId",
          "type": "uint256"
        }
      ],
      "name": "tokenURI",
      "outputs": [
        {
          "internalType": "string",
          "name": "",
          "type": "string"
        }
      ],
      "stateMutability": "pure",
      "type": "function"
    },
    {
      "inputs": [
        {
          "internalType": "address",
          "name": "from",
          "type": "address"
        },
        {
          "internalType": "address",
          "name": "to",
          "type": "address"
        },
        {
          "internalType": "uint256",
          "name": "id",
          "type": "uint256"
        }
      ],
      "name": "transferFrom",
      "outputs": [],
      "stateMutability": "nonpayable",
      "type": "function"
    },
    {
      "inputs": [],
      "name": "turing",
      "outputs": [
        {
          "internalType": "contract TuringHelper",
          "name": "",
          "type": "address"
        }
      ],
      "stateMutability": "view",
      "type": "function"
    }
  ],
  "transactionHash": "0xf048857827ee321783642dadaa8dda4f3a54ca2ed17603d8bddc4a984bb0d2fc",
  "args": [
    "0x64DC6Ac21C0d3fDA85a712D1d8D50FA6181d1fAb",
    "http://localhost:8080/api/turing-proximity"
  ],
  "numDeployments": 1,
  "solcInputHash": "d66d163b65fe45492db6f3d20faf3f56",
  "bytecode": "0x60806040523480156200001157600080fd5b5060405162002997380380620029978339818101604052810190620000379190620003eb565b6040518060400160405280600681526020017f456e7469747900000000000000000000000000000000000000000000000000008152506040518060400160405280600681526020017f454e5449545900000000000000000000000000000000000000000000000000008152508160009080519060200190620000bb92919062000139565b508060019080519060200190620000d492919062000139565b50505081600760006101000a81548173ffffffffffffffffffffffffffffffffffffffff021916908373ffffffffffffffffffffffffffffffffffffffff16021790555080600890805190602001906200013092919062000139565b505050620004b5565b828054620001479062000480565b90600052602060002090601f0160209004810192826200016b5760008555620001b7565b82601f106200018657805160ff1916838001178555620001b7565b82800160010185558215620001b7579182015b82811115620001b657825182559160200191906001019062000199565b5b509050620001c69190620001ca565b5090565b5b80821115620001e5576000816000905550600101620001cb565b5090565b6000604051905090565b600080fd5b600080fd5b600073ffffffffffffffffffffffffffffffffffffffff82169050919050565b60006200022a82620001fd565b9050919050565b6200023c816200021d565b81146200024857600080fd5b50565b6000815190506200025c8162000231565b92915050565b600080fd5b600080fd5b6000601f19601f8301169050919050565b7f4e487b7100000000000000000000000000000000000000000000000000000000600052604160045260246000fd5b620002b7826200026c565b810181811067ffffffffffffffff82111715620002d957620002d86200027d565b5b80604052505050565b6000620002ee620001e9565b9050620002fc8282620002ac565b919050565b600067ffffffffffffffff8211156200031f576200031e6200027d565b5b6200032a826200026c565b9050602081019050919050565b60005b83811015620003575780820151818401526020810190506200033a565b8381111562000367576000848401525b50505050565b6000620003846200037e8462000301565b620002e2565b905082815260208101848484011115620003a357620003a262000267565b5b620003b084828562000337565b509392505050565b600082601f830112620003d057620003cf62000262565b5b8151620003e28482602086016200036d565b91505092915050565b60008060408385031215620004055762000404620001f3565b5b600062000415858286016200024b565b925050602083015167ffffffffffffffff811115620004395762000438620001f8565b5b6200044785828601620003b8565b9150509250929050565b7f4e487b7100000000000000000000000000000000000000000000000000000000600052602260045260246000fd5b600060028204905060018216806200049957607f821691505b602082108103620004af57620004ae62000451565b5b50919050565b6124d280620004c56000396000f3fe608060405234801561001057600080fd5b50600436106101215760003560e01c80636352211e116100ad578063b88d4fde11610071578063b88d4fde1461031c578063c87b56dd14610338578063d2c18e0b14610368578063e1fa763814610386578063e985e9c5146103a257610121565b80636352211e1461025257806370a0823114610282578063783b6d60146102b257806395d89b41146102e2578063a22cb4651461030057610121565b80631249c58b116100f45780631249c58b146101c057806317d70f7c146101de57806323b872dd146101fc57806342842e0e1461021857806350c897ba1461023457610121565b806301ffc9a71461012657806306fdde0314610156578063081812fc14610174578063095ea7b3146101a4575b600080fd5b610140600480360381019061013b919061169a565b6103d2565b60405161014d91906116e2565b60405180910390f35b61015e610464565b60405161016b9190611796565b60405180910390f35b61018e600480360381019061018991906117ee565b6104f2565b60405161019b919061185c565b60405180910390f35b6101be60048036038101906101b991906118a3565b610525565b005b6101c861070e565b6040516101d591906118f2565b60405180910390f35b6101e661079e565b6040516101f391906118f2565b60405180910390f35b6102166004803603810190610211919061190d565b6107a4565b005b610232600480360381019061022d919061190d565b610ba3565b005b61023c610cdb565b60405161024991906119bf565b60405180910390f35b61026c600480360381019061026791906117ee565b610d01565b604051610279919061185c565b60405180910390f35b61029c600480360381019061029791906119da565b610d34565b6040516102a991906118f2565b60405180910390f35b6102cc60048036038101906102c791906117ee565b610d4c565b6040516102d991906118f2565b60405180910390f35b6102ea610d64565b6040516102f79190611796565b60405180910390f35b61031a60048036038101906103159190611a33565b610df2565b005b61033660048036038101906103319190611ba8565b610eef565b005b610352600480360381019061034d91906117ee565b61102a565b60405161035f9190611796565b60405180910390f35b610370611043565b60405161037d9190611796565b60405180910390f35b6103a0600480360381019061039b9190611c2b565b6110d1565b005b6103bc60048036038101906103b79190611c6b565b6113dc565b6040516103c991906116e2565b60405180910390f35b60006301ffc9a760e01b827bffffffffffffffffffffffffffffffffffffffffffffffffffffffff1916148061042d57506380ac58cd60e01b827bffffffffffffffffffffffffffffffffffffffffffffffffffffffff1916145b8061045d5750635b5e139f60e01b827bffffffffffffffffffffffffffffffffffffffffffffffffffffffff1916145b9050919050565b6000805461047190611cda565b80601f016020809104026020016040519081016040528092919081815260200182805461049d90611cda565b80156104ea5780601f106104bf576101008083540402835291602001916104ea565b820191906000526020600020905b8154815290600101906020018083116104cd57829003601f168201915b505050505081565b60046020528060005260406000206000915054906101000a900473ffffffffffffffffffffffffffffffffffffffff1681565b60006003600083815260200190815260200160002060009054906101000a900473ffffffffffffffffffffffffffffffffffffffff1690508073ffffffffffffffffffffffffffffffffffffffff163373ffffffffffffffffffffffffffffffffffffffff16148061061d5750600560008273ffffffffffffffffffffffffffffffffffffffff1673ffffffffffffffffffffffffffffffffffffffff16815260200190815260200160002060003373ffffffffffffffffffffffffffffffffffffffff1673ffffffffffffffffffffffffffffffffffffffff16815260200190815260200160002060009054906101000a900460ff165b61065c576040517f08c379a000000000000000000000000000000000000000000000000000000000815260040161065390611d57565b60405180910390fd5b826004600084815260200190815260200160002060006101000a81548173ffffffffffffffffffffffffffffffffffffffff021916908373ffffffffffffffffffffffffffffffffffffffff160217905550818373ffffffffffffffffffffffffffffffffffffffff168273ffffffffffffffffffffffffffffffffffffffff167f8c5be1e5ebec7d5bd14f71427d1e84f3dd0314c0f7b2291e5b200ac8c7c3b92560405160405180910390a4505050565b6000610730336006600081548092919061072790611da6565b9190505561140b565b6005600960006006548152602001908152602001600020819055503373ffffffffffffffffffffffffffffffffffffffff167f37d84b1d86b4b40a1b1220180ad7cdc6803e6fa4682b60480acb1f94ea32ec8760065460405161079391906118f2565b60405180910390a290565b60065481565b6003600082815260200190815260200160002060009054906101000a900473ffffffffffffffffffffffffffffffffffffffff1673ffffffffffffffffffffffffffffffffffffffff168373ffffffffffffffffffffffffffffffffffffffff1614610845576040517f08c379a000000000000000000000000000000000000000000000000000000000815260040161083c90611e3a565b60405180910390fd5b600073ffffffffffffffffffffffffffffffffffffffff168273ffffffffffffffffffffffffffffffffffffffff16036108b4576040517f08c379a00000000000000000000000000000000000000000000000000000000081526004016108ab90611ea6565b60405180910390fd5b8273ffffffffffffffffffffffffffffffffffffffff163373ffffffffffffffffffffffffffffffffffffffff16148061094c57506004600082815260200190815260200160002060009054906101000a900473ffffffffffffffffffffffffffffffffffffffff1673ffffffffffffffffffffffffffffffffffffffff163373ffffffffffffffffffffffffffffffffffffffff16145b806109dd5750600560008473ffffffffffffffffffffffffffffffffffffffff1673ffffffffffffffffffffffffffffffffffffffff16815260200190815260200160002060003373ffffffffffffffffffffffffffffffffffffffff1673ffffffffffffffffffffffffffffffffffffffff16815260200190815260200160002060009054906101000a900460ff165b610a1c576040517f08c379a0000000000000000000000000000000000000000000000000000000008152600401610a1390611d57565b60405180910390fd5b600260008473ffffffffffffffffffffffffffffffffffffffff1673ffffffffffffffffffffffffffffffffffffffff1681526020019081526020016000206000815480929190600190039190505550600260008373ffffffffffffffffffffffffffffffffffffffff1673ffffffffffffffffffffffffffffffffffffffff16815260200190815260200160002060008154809291906001019190505550816003600083815260200190815260200160002060006101000a81548173ffffffffffffffffffffffffffffffffffffffff021916908373ffffffffffffffffffffffffffffffffffffffff1602179055506004600082815260200190815260200160002060006101000a81549073ffffffffffffffffffffffffffffffffffffffff0219169055808273ffffffffffffffffffffffffffffffffffffffff168473ffffffffffffffffffffffffffffffffffffffff167fddf252ad1be2c89b69c2b068fc378daa952ba7f163c4a11628f55a4df523b3ef60405160405180910390a4505050565b610bae8383836107a4565b60008273ffffffffffffffffffffffffffffffffffffffff163b1480610c97575063150b7a0260e01b7bffffffffffffffffffffffffffffffffffffffffffffffffffffffff19168273ffffffffffffffffffffffffffffffffffffffff1663150b7a023386856040518463ffffffff1660e01b8152600401610c3393929190611efd565b6020604051808303816000875af1158015610c52573d6000803e3d6000fd5b505050506040513d601f19601f82011682018060405250810190610c769190611f5c565b7bffffffffffffffffffffffffffffffffffffffffffffffffffffffff1916145b610cd6576040517f08c379a0000000000000000000000000000000000000000000000000000000008152600401610ccd90611fd5565b60405180910390fd5b505050565b600760009054906101000a900473ffffffffffffffffffffffffffffffffffffffff1681565b60036020528060005260406000206000915054906101000a900473ffffffffffffffffffffffffffffffffffffffff1681565b60026020528060005260406000206000915090505481565b60096020528060005260406000206000915090505481565b60018054610d7190611cda565b80601f0160208091040260200160405190810160405280929190818152602001828054610d9d90611cda565b8015610dea5780601f10610dbf57610100808354040283529160200191610dea565b820191906000526020600020905b815481529060010190602001808311610dcd57829003601f168201915b505050505081565b80600560003373ffffffffffffffffffffffffffffffffffffffff1673ffffffffffffffffffffffffffffffffffffffff16815260200190815260200160002060008473ffffffffffffffffffffffffffffffffffffffff1673ffffffffffffffffffffffffffffffffffffffff16815260200190815260200160002060006101000a81548160ff0219169083151502179055508173ffffffffffffffffffffffffffffffffffffffff163373ffffffffffffffffffffffffffffffffffffffff167f17307eab39ab6107e8899845ad3d59bd9653f200f220920489ca2b5937696c3183604051610ee391906116e2565b60405180910390a35050565b610efa8484846107a4565b60008373ffffffffffffffffffffffffffffffffffffffff163b1480610fe5575063150b7a0260e01b7bffffffffffffffffffffffffffffffffffffffffffffffffffffffff19168373ffffffffffffffffffffffffffffffffffffffff1663150b7a02338786866040518563ffffffff1660e01b8152600401610f819493929190612039565b6020604051808303816000875af1158015610fa0573d6000803e3d6000fd5b505050506040513d601f19601f82011682018060405250810190610fc49190611f5c565b7bffffffffffffffffffffffffffffffffffffffffffffffffffffffff1916145b611024576040517f08c379a000000000000000000000000000000000000000000000000000000000815260040161101b90611fd5565b60405180910390fd5b50505050565b6060604051806020016040528060008152509050919050565b6008805461105090611cda565b80601f016020809104026020016040519081016040528092919081815260200182805461107c90611cda565b80156110c95780601f1061109e576101008083540402835291602001916110c9565b820191906000526020600020905b8154815290600101906020018083116110ac57829003601f168201915b505050505081565b6003600083815260200190815260200160002060009054906101000a900473ffffffffffffffffffffffffffffffffffffffff1673ffffffffffffffffffffffffffffffffffffffff163373ffffffffffffffffffffffffffffffffffffffff1614611172576040517f08c379a0000000000000000000000000000000000000000000000000000000008152600401611169906120d1565b60405180910390fd5b60006009600084815260200190815260200160002054116111c8576040517f08c379a00000000000000000000000000000000000000000000000000000000081526004016111bf9061213d565b60405180910390fd5b600060096000838152602001908152602001600020541161121e576040517f08c379a0000000000000000000000000000000000000000000000000000000008152600401611215906121a9565b60405180910390fd5b600082826040516020016112339291906121ea565b604051602081830303815290604052905060006112f4600760009054906101000a900473ffffffffffffffffffffffffffffffffffffffff1673ffffffffffffffffffffffffffffffffffffffff16632f7adf436008856040518363ffffffff1660e01b81526004016112a79291906122ab565b6000604051808303816000875af11580156112c6573d6000803e3d6000fd5b505050506040513d6000823e3d601f19601f820116820180604052508101906112ef9190612352565b61161d565b905080611336576040517f08c379a000000000000000000000000000000000000000000000000000000000815260040161132d906123e7565b60405180910390fd5b60096000848152602001908152602001600020600081548092919061135a90612407565b919050555082847f722bf2499704ddf6a39d5d4255ae6b6ed3dab17d2fb7155f877f86d53b83824660405160405180910390a360006009600085815260200190815260200160002054036113d657827f50da336189cb35711eb9fd1da5b9d19e4a7098abee6c0fd219d4f9f1a36cf8fa60405160405180910390a25b50505050565b60056020528160005260406000206020528060005260406000206000915091509054906101000a900460ff1681565b600073ffffffffffffffffffffffffffffffffffffffff168273ffffffffffffffffffffffffffffffffffffffff160361147a576040517f08c379a000000000000000000000000000000000000000000000000000000000815260040161147190611ea6565b60405180910390fd5b600073ffffffffffffffffffffffffffffffffffffffff166003600083815260200190815260200160002060009054906101000a900473ffffffffffffffffffffffffffffffffffffffff1673ffffffffffffffffffffffffffffffffffffffff161461151c576040517f08c379a00000000000000000000000000000000000000000000000000000000081526004016115139061247c565b60405180910390fd5b600260008373ffffffffffffffffffffffffffffffffffffffff1673ffffffffffffffffffffffffffffffffffffffff16815260200190815260200160002060008154809291906001019190505550816003600083815260200190815260200160002060006101000a81548173ffffffffffffffffffffffffffffffffffffffff021916908373ffffffffffffffffffffffffffffffffffffffff160217905550808273ffffffffffffffffffffffffffffffffffffffff16600073ffffffffffffffffffffffffffffffffffffffff167fddf252ad1be2c89b69c2b068fc378daa952ba7f163c4a11628f55a4df523b3ef60405160405180910390a45050565b600081516020830151915050919050565b6000604051905090565b600080fd5b600080fd5b60007fffffffff0000000000000000000000000000000000000000000000000000000082169050919050565b61167781611642565b811461168257600080fd5b50565b6000813590506116948161166e565b92915050565b6000602082840312156116b0576116af611638565b5b60006116be84828501611685565b91505092915050565b60008115159050919050565b6116dc816116c7565b82525050565b60006020820190506116f760008301846116d3565b92915050565b600081519050919050565b600082825260208201905092915050565b60005b8381101561173757808201518184015260208101905061171c565b83811115611746576000848401525b50505050565b6000601f19601f8301169050919050565b6000611768826116fd565b6117728185611708565b9350611782818560208601611719565b61178b8161174c565b840191505092915050565b600060208201905081810360008301526117b0818461175d565b905092915050565b6000819050919050565b6117cb816117b8565b81146117d657600080fd5b50565b6000813590506117e8816117c2565b92915050565b60006020828403121561180457611803611638565b5b6000611812848285016117d9565b91505092915050565b600073ffffffffffffffffffffffffffffffffffffffff82169050919050565b60006118468261181b565b9050919050565b6118568161183b565b82525050565b6000602082019050611871600083018461184d565b92915050565b6118808161183b565b811461188b57600080fd5b50565b60008135905061189d81611877565b92915050565b600080604083850312156118ba576118b9611638565b5b60006118c88582860161188e565b92505060206118d9858286016117d9565b9150509250929050565b6118ec816117b8565b82525050565b600060208201905061190760008301846118e3565b92915050565b60008060006060848603121561192657611925611638565b5b60006119348682870161188e565b93505060206119458682870161188e565b9250506040611956868287016117d9565b9150509250925092565b6000819050919050565b600061198561198061197b8461181b565b611960565b61181b565b9050919050565b60006119978261196a565b9050919050565b60006119a98261198c565b9050919050565b6119b98161199e565b82525050565b60006020820190506119d460008301846119b0565b92915050565b6000602082840312156119f0576119ef611638565b5b60006119fe8482850161188e565b91505092915050565b611a10816116c7565b8114611a1b57600080fd5b50565b600081359050611a2d81611a07565b92915050565b60008060408385031215611a4a57611a49611638565b5b6000611a588582860161188e565b9250506020611a6985828601611a1e565b9150509250929050565b600080fd5b600080fd5b7f4e487b7100000000000000000000000000000000000000000000000000000000600052604160045260246000fd5b611ab58261174c565b810181811067ffffffffffffffff82111715611ad457611ad3611a7d565b5b80604052505050565b6000611ae761162e565b9050611af38282611aac565b919050565b600067ffffffffffffffff821115611b1357611b12611a7d565b5b611b1c8261174c565b9050602081019050919050565b82818337600083830152505050565b6000611b4b611b4684611af8565b611add565b905082815260208101848484011115611b6757611b66611a78565b5b611b72848285611b29565b509392505050565b600082601f830112611b8f57611b8e611a73565b5b8135611b9f848260208601611b38565b91505092915050565b60008060008060808587031215611bc257611bc1611638565b5b6000611bd08782880161188e565b9450506020611be18782880161188e565b9350506040611bf2878288016117d9565b925050606085013567ffffffffffffffff811115611c1357611c1261163d565b5b611c1f87828801611b7a565b91505092959194509250565b60008060408385031215611c4257611c41611638565b5b6000611c50858286016117d9565b9250506020611c61858286016117d9565b9150509250929050565b60008060408385031215611c8257611c81611638565b5b6000611c908582860161188e565b9250506020611ca18582860161188e565b9150509250929050565b7f4e487b7100000000000000000000000000000000000000000000000000000000600052602260045260246000fd5b60006002820490506001821680611cf257607f821691505b602082108103611d0557611d04611cab565b5b50919050565b7f4e4f545f415554484f52495a4544000000000000000000000000000000000000600082015250565b6000611d41600e83611708565b9150611d4c82611d0b565b602082019050919050565b60006020820190508181036000830152611d7081611d34565b9050919050565b7f4e487b7100000000000000000000000000000000000000000000000000000000600052601160045260246000fd5b6000611db1826117b8565b91507fffffffffffffffffffffffffffffffffffffffffffffffffffffffffffffffff8203611de357611de2611d77565b5b600182019050919050565b7f57524f4e475f46524f4d00000000000000000000000000000000000000000000600082015250565b6000611e24600a83611708565b9150611e2f82611dee565b602082019050919050565b60006020820190508181036000830152611e5381611e17565b9050919050565b7f494e56414c49445f524543495049454e54000000000000000000000000000000600082015250565b6000611e90601183611708565b9150611e9b82611e5a565b602082019050919050565b60006020820190508181036000830152611ebf81611e83565b9050919050565b600082825260208201905092915050565b50565b6000611ee7600083611ec6565b9150611ef282611ed7565b600082019050919050565b6000608082019050611f12600083018661184d565b611f1f602083018561184d565b611f2c60408301846118e3565b8181036060830152611f3d81611eda565b9050949350505050565b600081519050611f568161166e565b92915050565b600060208284031215611f7257611f71611638565b5b6000611f8084828501611f47565b91505092915050565b7f554e534146455f524543495049454e5400000000000000000000000000000000600082015250565b6000611fbf601083611708565b9150611fca82611f89565b602082019050919050565b60006020820190508181036000830152611fee81611fb2565b9050919050565b600081519050919050565b600061200b82611ff5565b6120158185611ec6565b9350612025818560208601611719565b61202e8161174c565b840191505092915050565b600060808201905061204e600083018761184d565b61205b602083018661184d565b61206860408301856118e3565b818103606083015261207a8184612000565b905095945050505050565b7f556e617574686f72697a65640000000000000000000000000000000000000000600082015250565b60006120bb600c83611708565b91506120c682612085565b602082019050919050565b600060208201905081810360008301526120ea816120ae565b9050919050565b7f41747461636b6572206973206465616400000000000000000000000000000000600082015250565b6000612127601083611708565b9150612132826120f1565b602082019050919050565b600060208201905081810360008301526121568161211a565b9050919050565b7f5461726765742069732064656164000000000000000000000000000000000000600082015250565b6000612193600e83611708565b915061219e8261215d565b602082019050919050565b600060208201905081810360008301526121c281612186565b9050919050565b6000819050919050565b6121e46121df826117b8565b6121c9565b82525050565b60006121f682856121d3565b60208201915061220682846121d3565b6020820191508190509392505050565b60008190508160005260206000209050919050565b6000815461223881611cda565b6122428186611708565b9450600182166000811461225d576001811461226f576122a2565b60ff19831686526020860193506122a2565b61227885612216565b60005b8381101561229a5781548189015260018201915060208101905061227b565b808801955050505b50505092915050565b600060408201905081810360008301526122c5818561222b565b905081810360208301526122d98184612000565b90509392505050565b60006122f56122f084611af8565b611add565b90508281526020810184848401111561231157612310611a78565b5b61231c848285611719565b509392505050565b600082601f83011261233957612338611a73565b5b81516123498482602086016122e2565b91505092915050565b60006020828403121561236857612367611638565b5b600082015167ffffffffffffffff8111156123865761238561163d565b5b61239284828501612324565b91505092915050565b7f41747461636b6572206973206f7574206f662072616e67650000000000000000600082015250565b60006123d1601883611708565b91506123dc8261239b565b602082019050919050565b60006020820190508181036000830152612400816123c4565b9050919050565b6000612412826117b8565b91506000820361242557612424611d77565b5b600182039050919050565b7f414c52454144595f4d494e544544000000000000000000000000000000000000600082015250565b6000612466600e83611708565b915061247182612430565b602082019050919050565b6000602082019050818103600083015261249581612459565b905091905056fea2646970667358221220ad32bb0f0384698dc6d5186a669470385f78137c3353a59d6b63d696f65c94bd64736f6c634300080d0033",
  "devdoc": {
    "kind": "dev",
    "methods": {},
    "version": 1
  },
  "userdoc": {
    "kind": "user",
    "methods": {},
    "version": 1
  },
  "storageLayout": {
    "storage": [
      {
        "astId": 155,
        "contract": "contracts/Entity.sol:Entity",
        "label": "name",
        "offset": 0,
        "slot": "0",
        "type": "t_string_storage"
      },
      {
        "astId": 157,
        "contract": "contracts/Entity.sol:Entity",
        "label": "symbol",
        "offset": 0,
        "slot": "1",
        "type": "t_string_storage"
      },
      {
        "astId": 168,
        "contract": "contracts/Entity.sol:Entity",
        "label": "balanceOf",
        "offset": 0,
        "slot": "2",
        "type": "t_mapping(t_address,t_uint256)"
      },
      {
        "astId": 172,
        "contract": "contracts/Entity.sol:Entity",
        "label": "ownerOf",
        "offset": 0,
        "slot": "3",
        "type": "t_mapping(t_uint256,t_address)"
      },
      {
        "astId": 176,
        "contract": "contracts/Entity.sol:Entity",
        "label": "getApproved",
        "offset": 0,
        "slot": "4",
        "type": "t_mapping(t_uint256,t_address)"
      },
      {
        "astId": 182,
        "contract": "contracts/Entity.sol:Entity",
        "label": "isApprovedForAll",
        "offset": 0,
        "slot": "5",
        "type": "t_mapping(t_address,t_mapping(t_address,t_bool))"
      },
      {
        "astId": 650,
        "contract": "contracts/Entity.sol:Entity",
        "label": "tokenId",
        "offset": 0,
        "slot": "6",
        "type": "t_uint256"
      },
      {
        "astId": 653,
        "contract": "contracts/Entity.sol:Entity",
        "label": "turing",
        "offset": 0,
        "slot": "7",
        "type": "t_contract(TuringHelper)1273"
      },
      {
        "astId": 655,
        "contract": "contracts/Entity.sol:Entity",
        "label": "api",
        "offset": 0,
        "slot": "8",
        "type": "t_string_storage"
      },
      {
        "astId": 659,
        "contract": "contracts/Entity.sol:Entity",
        "label": "health",
        "offset": 0,
        "slot": "9",
        "type": "t_mapping(t_uint256,t_uint256)"
      }
    ],
    "types": {
      "t_address": {
        "encoding": "inplace",
        "label": "address",
        "numberOfBytes": "20"
      },
      "t_bool": {
        "encoding": "inplace",
        "label": "bool",
        "numberOfBytes": "1"
      },
      "t_contract(TuringHelper)1273": {
        "encoding": "inplace",
        "label": "contract TuringHelper",
        "numberOfBytes": "20"
      },
      "t_mapping(t_address,t_bool)": {
        "encoding": "mapping",
        "key": "t_address",
        "label": "mapping(address => bool)",
        "numberOfBytes": "32",
        "value": "t_bool"
      },
      "t_mapping(t_address,t_mapping(t_address,t_bool))": {
        "encoding": "mapping",
        "key": "t_address",
        "label": "mapping(address => mapping(address => bool))",
        "numberOfBytes": "32",
        "value": "t_mapping(t_address,t_bool)"
      },
      "t_mapping(t_address,t_uint256)": {
        "encoding": "mapping",
        "key": "t_address",
        "label": "mapping(address => uint256)",
        "numberOfBytes": "32",
        "value": "t_uint256"
      },
      "t_mapping(t_uint256,t_address)": {
        "encoding": "mapping",
        "key": "t_uint256",
        "label": "mapping(uint256 => address)",
        "numberOfBytes": "32",
        "value": "t_address"
      },
      "t_mapping(t_uint256,t_uint256)": {
        "encoding": "mapping",
        "key": "t_uint256",
        "label": "mapping(uint256 => uint256)",
        "numberOfBytes": "32",
        "value": "t_uint256"
      },
      "t_string_storage": {
        "encoding": "bytes",
        "label": "string",
        "numberOfBytes": "32"
      },
      "t_uint256": {
        "encoding": "inplace",
        "label": "uint256",
        "numberOfBytes": "32"
      }
    }
  }
}